{
  "metadata": {
    "parentHash": "0x405914e496bbbd71f0d8c6d77162f010152187ccc5d8661fb0d16f1f78b4c0a7",
    "sha3Uncles": "0x1dcc4de8dec75d7aab85b567b6ccd41ad312451b948a7413f0a142fd40d49347",
    "miner": "0xc6f86915245e154ff04ad95750306392c82efde8",
    "stateRoot": "0xdb98b1bcd03585215dbb1e15321b307f1acd502123e20d002901e927eb1e7c0d",
    "transactionsRoot": "0x66349cfbf1e3a6ca24b6d02481ea6a857e3b4ef896886b89b497803168eb8b6b",
    "receiptsRoot": "0xf13eb20e97ae7f97e6f1209661cda58016215d6bbe7fbae912e88c5087c20667",
    "logsBloom": "0x20000000000000000000000000800000000000000001000200000000000000000000000040000000000000000000000000003000000000000000001000000000001000000000000800000008000000000040000000000000000000000000000000000000020000000002000000100800200002004000000000000010000000000000000000000000000000000000040000000000000400000000000000000000000000000000000020000000010000000000000000000040000000000400000000101002000000000400000000000000000000000000000020000000000020002000000000000000000000000000000000000000000000000008100000080000",
    "difficulty": "0x1",
    "totalDifficulty": "0x1",
    "size": "0x446",
    "number": "0x79",
    "gasLimit": "0x1c9c380",
    "gasUsed": "0x3e928",
    "timestamp": "0x651e825b",
    "extraData": "0x0000000000000000000000000000000000000000000000000000000000000000f8b0c0f843b84024cbb44013a00b09a88dc08c95cc43e563a452a9223aa7bdf72e1084b5fcc0a904aae2f7061a2dd7ec7ab444b12839f64f46b058769fea44ce0e79a52798eb3807c28080f8658001a0527b2584444cf0f3f5c22df4f24e98d34da9ae7166f259a64b76717cb0fcb76aa0527b2584444cf0f3f5c22df4f24e98d34da9ae7166f259a64b76717cb0fcb76aa00000000000000000000000000000000000000000000000000000000000000000",
    "mixHash": "0xadce6e5230abe012342a44e4e9b6d05997d6f015387ae0e59be924afc7ec70c1",
    "nonce": "0x0000000000000000",
    "hash": "0x3215285d3da9f5390af276f78561f23da49fc42e0c210847b81870d45c76fb54",
    "transactions": [
      {
        "nonce": "0x1021",
        "gasPrice": "0x3ca49675",
        "maxPriorityFeePerGas": "0x3ca49551",
        "maxFeePerGas": "0x3ca498b3",
        "gas": "0x1ff84",
        "to": "0xEc59Ea1ACB9fc9F630B2DCe73790eD8Be0ac036e",
        "value": "0x0",
        "input": "0x248b71fc000000000000000000000000deadbeefdeadbeefdeadbeefdeadbeefdeadbeef0000000000000000000000000000000000000000000000000000000000000004",
        "v": "0x0",
        "r": "0x9870854a011f1e2d9e19d97747a1553f8790def21586886b434b1d682e8df5db",
        "s": "0x35a8a125e1de786b621f99e4a40ebced58599bd66db42f2957c5787cae5e52c4",
        "hash": "0xf9aab78a5b8fb3586ffba16dfda2c6221cfeffa3b090fe968650f7977c1a850b",
        "from": "0x85dA99c8a7C2C95964c8EfD687E95E632Fc533D6",
        "blockHash": "0x3215285d3da9f5390af276f78561f23da49fc42e0c210847b81870d45c76fb54",
        "blockNumber": "0x79",
        "transactionIndex": "0x0",
        "chainId": "0x7d1",
        "type": "0x2"
      },
      {
        "nonce": "0x1022",
        "gasPrice": "0x3ca33c3c",
        "maxPriorityFeePerGas": "0x3ca33b18",
        "maxFeePerGas": "0x3ca33e7a",
        "gas": "0x1ff84",
        "to": "0xEc59Ea1ACB9fc9F630B2DCe73790eD8Be0ac036e",
        "value": "0x0",
        "input": "0x248b71fc000000000000000000000000deadbeefdeadbeefdeadbeefdeadbeefdeadbeef0000000000000000000000000000000000000000000000000000000000000004",
        "v": "0x0",
        "r": "0xb77652968607b73b54caf5a1e9ecad604c06f12c9739b725d568011abb72a6a3",
        "s": "0x622585790ea08cbc1b9386e1b180e83238ee3333263c75d849fa18d3f65bfcb1",
        "hash": "0x92385687b7a0068beacd3fdc06fa5e84d973eedfa8d16913c146a05827e6be9f",
        "from": "0x85dA99c8a7C2C95964c8EfD687E95E632Fc533D6",
        "blockHash": "0x3215285d3da9f5390af276f78561f23da49fc42e0c210847b81870d45c76fb54",
        "blockNumber": "0x79",
        "transactionIndex": "0x1",
        "chainId": "0x7d1",
        "type": "0x2"
      }
    ],
    "uncles": [],
    "baseFeePerGas": "0x124"
  },
  "trace": {
    "accountTrie": {
      "092dd3cec26eeaa3d5cbb58fda6ad5d3038a280f23e8409eaef2147d7dd1c669": "f85180a031d1eb10fdf37ef90417d463e9e3d1dad5bab6a3e8b38ccc4eaa744250317457808080a03d30ddc70d916077f85f0821c304dbef76e595b4a1b2f149b87bee1ea39dd0a08080808080808080808080",
      "35f869aed035cff0227bb6634af02dcf74b27393a2598894e00a862d5419c083": "f901b1a0f8c14d364267234dce85ddd7c58e15611d8b145448659fe025b0c7f9ece62d338080a04b4d7bb0b1f18bb7feac4596c9b8bcca0d4e1a57f5d2a93511172c822d460c00a0511436e82a7f32620c43b42c29d7896f469642fdcc1401663d04b44d444468e2a0e16fbc424e9f795c3895a477916db9b85777aafe91a64ca5b62f33f20e459830a086698225dec11e23a58f3e000245581f67842bec7da80ed5338cf783613990e4a0e5b001f6499ffcb038ac7e3384b3e8e268ad66b34c569753a7ec96a325666804a0364969fa64ed1edef177b8a87bbe20e26615582bf935df361abf64c0b7e2b589a0a8721acbe838c6537413119c5986baeed9252ce4cc888ae536037ce23c03a573a0092dd3cec26eeaa3d5cbb58fda6ad5d3038a280f23e8409eaef2147d7dd1c669a0edb7252c46e0cd0c366b8a6133e11caa531e0045f5e49c613dc88971ed19ae2aa0b89705489ca6a9e5e342a919a71c0306d39a8e138fcc3fa97adf2f9c13c0f6a380a03c249771d4d8ec7faffee6a9363bb9ec4541b86468f6345e549a99d3b0ed662ba07d52c7804c3da36c9c91aecd5410fdf7c81fa77d548d722c36a74fc4bd22739580",
      "3d30ddc70d916077f85f0821c304dbef76e595b4a1b2f149b87bee1ea39dd0a0": "f85180a046490d5d18dbbbc0659037c4aa08844669ee0edd65234966c248b4f6547d138480808080808080808080a0b352e4c72d853473be5eac69cf10adfdc61a3747ec26a4b424f0a29292fc1d3780808080",
      "412ab9b2d76b1c92377724ce0af56a403e73b536165cccba2e7075f4c9f62a2d": "f873a020a96499cb97ce4ad00da64466a7e05c44631052075767b72ab492533785fb4eb850f84e808ad3c21c5fdef72337f0fca056e81f171bcc55a6ff8345e692c0f86e5b48e01b996cadc001622fb5e363b421a0c5d2460186f7233c927e7db2dcc703c0e500b653ca82273b7bfad8045d85a470",
      "46490d5d18dbbbc0659037c4aa08844669ee0edd65234966c248b4f6547d1384": "f8769f3eec2b84f0ba344fd4b4d2f022469febe7a772c4789acfc119eb558ab1da3db854f8528210218c033b2e3c649ca90fa48771f2a056e81f171bcc55a6ff8345e692c0f86e5b48e01b996cadc001622fb5e363b421a0c5d2460186f7233c927e7db2dcc703c0e500b653ca82273b7bfad8045d85a470",
      "9df0685a238a59acbc495a3ecd6dedf9ced7c4313877ab2957897ef684348f99": "f869a020417f50fc699ebb817e23468e114836fb4578b6281ced73df8cbbfefb427243b846f8440180a01d6bbbb263e54f0f47dd5777eef1413e0b9c66611dd3fcf20efe043e44ec10c1a05deadf02dd8344275283fee394945c5e15787054e0eef21f50c960fd91323297",
      "c86e63f0026de73a58da150280832d273f079383e2bd0d8f5e3c522657cf14cd": "f873a02080c7b7ae81a58eb98d9c78de4a1fd7fd9535fc953ed2be602daaa41767312ab850f84e808ad3c21bd8644e401dbf3fa056e81f171bcc55a6ff8345e692c0f86e5b48e01b996cadc001622fb5e363b421a0c5d2460186f7233c927e7db2dcc703c0e500b653ca82273b7bfad8045d85a470",
      "e16fbc424e9f795c3895a477916db9b85777aafe91a64ca5b62f33f20e459830": "f851808080a0c86e63f0026de73a58da150280832d273f079383e2bd0d8f5e3c522657cf14cd80a05c9df0e1f025a1aaf721bd81429fd72ee03f9d803127203461a6aab1dacb2d098080808080808080808080",
      "edb7252c46e0cd0c366b8a6133e11caa531e0045f5e49c613dc88971ed19ae2a": "f8718080808080a0412ab9b2d76b1c92377724ce0af56a403e73b536165cccba2e7075f4c9f62a2d8080a0d7c9bf3c020f4e9f196b7fa7e3d6921e8cddc4b8ae15587dd97f57beb343feb2808080808080a09df0685a238a59acbc495a3ecd6dedf9ced7c4313877ab2957897ef684348f9980"
    },
    "storageTrie": {
      "0e57bbe9bec24e1e516455ee894052ea224e4ae9abd8811ba4808fdde77c82a8": "f7a03ed6b174b60e64730a011130c9f953524c9b8b0209c3e867b353a7b046cd82559594deadbeefdeadbeefdeadbeefdeadbeefdeadbeef",
      "1d6bbbb263e54f0f47dd5777eef1413e0b9c66611dd3fcf20efe043e44ec10c1": "f90171a070fb015586e0a368b512032cfbd5fceda086a67bf6be30dd6bf82bccf4bae3cfa08e6f7b615d5dc6c52ebeb7a8cce3ffdfdc317748aa1f3d53a6d275e2cea447a880a05db0bc99b931e2f9e00ea24a60ed6f1c516a7b79d460953a809474286a9300d4a0bcb94c1f011fe547216d53e5d41f555ee8975c65ac930bb3c90d08a171faa9768080a03c057c0580bdfbb2cc6cf737053aa40e30f453a229e1119d22ff5c53f2252bf9a0e8b984619133ebc0f5404ee0e44de060352e18e085ed514f6750dc74e0daa9ff80a067c40ea83df3e9b196f83a9fc87ca8b2e2a5d60566773d067c41553aa5bf8d76a00e57bbe9bec24e1e516455ee894052ea224e4ae9abd8811ba4808fdde77c82a880a093a828ccb30e10ab34cdea0172558edac8157114b2835406b5688b9ead26d506a0bc1ea64f9f073abe598d717cb99d991319e00529f0774f87ad1edb3c2aeeba1fa0b31bceaf1564875cd3753188c6d491c0457329fbabc4bf1cd0f71dc8dd49fc9080",
      "3488f0cb2ebe2fbb01f16fa1cc60cdd0c3a2e6cb65d335a459e0bb6468cd0ffa": "f851808080a0425ef1e6e961d2683e8f2577244b80422e7075c353366d7c430dfc27baa8183f8080808080a06778e23bfda09232af2b334565e68e4f6e1f7d7ffab3d7041a2ba1e8ac48b9b180808080808080",
      "3c057c0580bdfbb2cc6cf737053aa40e30f453a229e1119d22ff5c53f2252bf9": "f7a039f133c7c61f4bd0d986fb30e6010fd6cfd571bdf11f16bb6f7d4a2702f44b009594deadbeefdeadbeefdeadbeefdeadbeefdeadbeef",
      "425ef1e6e961d2683e8f2577244b80422e7075c353366d7c430dfc27baa8183f": "e19f35acfbc15ff81a39ae7d344fd709f28e8600b4aa8c65c6b64bfe7fe36bd19b11",
      "5db0bc99b931e2f9e00ea24a60ed6f1c516a7b79d460953a809474286a9300d4": "f851808080808080a0fc9373511cbd22a6567d32e872d823111ab57bdcdd8bbc5b402df94174b1cba68080808080808080a0635f3543c5cb41fd454c2a67c9c110c0b4e120800d1b726b6041004bb51d6a5280",
      "635f3543c5cb41fd454c2a67c9c110c0b4e120800d1b726b6041004bb51d6a52": "f851808080808080a09e13a84af1df53bb92e90fc76cbf56745cb6c71b6dde67c0c24e78507c5a7c8d8080a02661ccc381b0ebe98b07ca5f1058cf14dae77953fff05be55bb59e11b7f1571780808080808080",
      "67c40ea83df3e9b196f83a9fc87ca8b2e2a5d60566773d067c41553aa5bf8d76": "f851808080a0e5f805662f65d24defa0d20e67807723b8f55090bb0dd3fa38ba9d489c458aec80808080808080a090421947a15980b99d6d0978c01011764d3200156b83942a5cf57c92c947a0088080808080",
      "70fb015586e0a368b512032cfbd5fceda086a67bf6be30dd6bf82bccf4bae3cf": "f85180808080a0f833e01f279ec7f9b3ea9a88d559551bd5e2acb373e50abea678a2fa2481e74e808080808080a006ea1cfe6cc7232238541a1be734911cff7f21e1dcfe5d6d7219b62b8974dec18080808080",
      "93a828ccb30e10ab34cdea0172558edac8157114b2835406b5688b9ead26d506": "f7a0319823ef1abef2d5a22cd02af62596bf1f9661224438df0b084726fe28c7d0ac9594deadbeefdeadbeefdeadbeefdeadbeefdeadbeef",
      "b31bceaf1564875cd3753188c6d491c0457329fbabc4bf1cd0f71dc8dd49fc90": "f7a030df3dcda05b4fbd9c655cde3d5ceb211e019e72ec816e127a59e7195f2cd7f5959485da99c8a7c2c95964c8efd687e95e632fc533d6",
      "e5f805662f65d24defa0d20e67807723b8f55090bb0dd3fa38ba9d489c458aec": "e2a020274d838c103e9f9bc29f202d8ca1c20b69ed320596d739da4d0a930f8ab17a0f",
      "e8b984619133ebc0f5404ee0e44de060352e18e085ed514f6750dc74e0daa9ff": "f85180808080808080808080a03488f0cb2ebe2fbb01f16fa1cc60cdd0c3a2e6cb65d335a459e0bb6468cd0ffa80a0ee2ce179d55660c94f3718928bf9ceab145fe91fa24a55552f7a15fe8400fa1b80808080"
    },
    "parentStateRoot": "0x35f869aed035cff0227bb6634af02dcf74b27393a2598894e00a862d5419c083",
    "transactionTraces": [
      {
        "txn": "0x02f8b48207d1821021843ca49551843ca498b38301ff8494ec59ea1acb9fc9f630b2dce73790ed8be0ac036e80b844248b71fc000000000000000000000000deadbeefdeadbeefdeadbeefdeadbeefdeadbeef0000000000000000000000000000000000000000000000000000000000000004c080a09870854a011f1e2d9e19d97747a1553f8790def21586886b434b1d682e8df5dba035a8a125e1de786b621f99e4a40ebced58599bd66db42f2957c5787cae5e52c4",
        "delta": {
          "0x0000000000000000000000000000000000000000": {
            "address": "0x0000000000000000000000000000000000000000",
            "read": true
          },
          "0x85dA99c8a7C2C95964c8EfD687E95E632Fc533D6": {
            "address": "0x85dA99c8a7C2C95964c8EfD687E95E632Fc533D6",
            "nonce": 4130,
            "read": true
          },
          "0xC6F86915245e154ff04aD95750306392C82eFdE8": {
            "address": "0xC6F86915245e154ff04aD95750306392C82eFdE8",
            "read": true
          },
          "0xEc59Ea1ACB9fc9F630B2DCe73790eD8Be0ac036e": {
            "address": "0xEc59Ea1ACB9fc9F630B2DCe73790eD8Be0ac036e",
            "storage": {
              "0x0000000000000000000000000000000000000000000000000000000000000004": "0x0000000000000000000000000000000000000000000000000000000000000015",
              "0x1cb7ce0668e72b96f704af9e1445a9dc6f6ac599eec355bfcfe4d3befbb001be": "0x000000000000000000000000deadbeefdeadbeefdeadbeefdeadbeefdeadbeef",
              "0x50a82f9cbcdfaca82fe46b4a494d325ee6dc33d1fa55b218ab142e6cc2c8a58b": "0x000000000000000000000000deadbeefdeadbeefdeadbeefdeadbeefdeadbeef",
              "0x9998fe8c12a1a1395171fc2449145bb1f0c273bfc80ab4ea62eb7a9cb439450c": "0x000000000000000000000000deadbeefdeadbeefdeadbeefdeadbeefdeadbeef",
              "0xa29f2962b8badecbf4d3036e28fcd7dcf22db126f130193790f7698ee4d3dd84": "0x000000000000000000000000deadbeefdeadbeefdeadbeefdeadbeefdeadbeef",
              "0xabd7b398c2237712843e3e780dcd40dfb99446b30666f04c025da4efa5ce5177": "0x0000000000000000000000000000000000000000000000000000000000000013"
            },
            "storage_read": {
              "0x0000000000000000000000000000000000000000000000000000000000000004": {},
              "0x1cb7ce0668e72b96f704af9e1445a9dc6f6ac599eec355bfcfe4d3befbb001be": {},
              "0x50a82f9cbcdfaca82fe46b4a494d325ee6dc33d1fa55b218ab142e6cc2c8a58b": {},
              "0x9998fe8c12a1a1395171fc2449145bb1f0c273bfc80ab4ea62eb7a9cb439450c": {},
              "0xa29f2962b8badecbf4d3036e28fcd7dcf22db126f130193790f7698ee4d3dd84": {},
              "0xabd7b398c2237712843e3e780dcd40dfb99446b30666f04c025da4efa5ce5177": {}
            },
            "code_read": "YIBgQFI0gBVhABBXYACA/VtQYAQ2EGEAqVdgADVg4ByAY0KELg4RYQBxV4BjQoQuDhRhAWJXgGNjUiEeFGEBfleAY3CggjEUYQGuV4Bjoiy0ZRRhAd5XgGO4jU/eFGEB+leAY+mF6cUUYQIWV2EAqVZbgGMB/8mnFGEArleAYwgYEvwUYQDeV4BjCV6nsxRhAQ5XgGMjuHLdFGEBKleAYySLcfwUYQFGV1tgAID9W2EAyGAEgDYDgQGQYQDDkZBhEj9WW2ECRlZbYEBRYQDVkZBhEodWW2BAUYCRA5DzW2EA+GAEgDYDgQGQYQDzkZBhEthWW2EDGFZbYEBRYQEFkZBhE0ZWW2BAUYCRA5DzW2EBKGAEgDYDgQGQYQEjkZBhE41WW2ED9VZbAFthAURgBIA2A4EBkGEBP5GQYRPNVlthBd1WWwBbYQFgYASANgOBAZBhAVuRkGETjVZbYQjJVlsAW2EBfGAEgDYDgQGQYQF3kZBhE81WW2EI11ZbAFthAZhgBIA2A4EBkGEBk5GQYRLYVlthCg9WW2BAUWEBpZGQYRNGVltgQFGAkQOQ81thAchgBIA2A4EBkGEBw5GQYRQgVlthCrpWW2BAUWEB1ZGQYRRcVltgQFGAkQOQ81thAfhgBIA2A4EBkGEB85GQYRSjVlthC3FWWwBbYQIUYASANgOBAZBhAg+RkGEVSFZbYQxuVlsAW2ECMGAEgDYDgQGQYQIrkZBhFdBWW2ENrFZbYEBRYQI9kZBhEodWW2BAUYCRA5DzW2AAf4CsWM0AAAAAAAAAAAAAAAAAAAAAAAAAAAAAAAAAAAAAe/////////////////////////////////////8ZFoJ7/////////////////////////////////////xkWFIBhAxFXUH8B/8mnAAAAAAAAAAAAAAAAAAAAAAAAAAAAAAAAAAAAAHv/////////////////////////////////////GRaCe/////////////////////////////////////8ZFhRbkFCRkFBWW2AAgHP//////////////////////////xZgAICEgVJgIAGQgVJgIAFgACBgAJBUkGEBAAqQBHP//////////////////////////xZz//////////////////////////8WA2EDuldgQFF/CMN5oAAAAAAAAAAAAAAAAAAAAAAAAAAAAAAAAAAAAACBUmAEAWEDsZBhFm1WW2BAUYCRA5D9W2ACYACDgVJgIAGQgVJgIAFgACBgAJBUkGEBAAqQBHP//////////////////////////xaQUJGQUFZbYACAYACDgVJgIAGQgVJgIAFgACBgAJBUkGEBAAqQBHP//////////////////////////xaQUIBz//////////////////////////8WM3P//////////////////////////xYUgGEE7FdQYANgAIJz//////////////////////////8Wc///////////////////////////FoFSYCABkIFSYCABYAAgYAAzc///////////////////////////FnP//////////////////////////xaBUmAgAZCBUmAgAWAAIGAAkFSQYQEACpAEYP8WW2EFK1dgQFF/CMN5oAAAAAAAAAAAAAAAAAAAAAAAAAAAAAAAAAAAAACBUmAEAWEFIpBhFtlWW2BAUYCRA5D9W4JgAmAAhIFSYCABkIFSYCABYAAgYABhAQAKgVSBc///////////////////////////AhkWkINz//////////////////////////8WAheQVVCBg3P//////////////////////////xaCc///////////////////////////Fn+MW+Hl6+x9W9FPcUJ9HoTz3QMUwPeyKR5bIArIx8O5JWBAUWBAUYCRA5CkUFBQVltgAICCgVJgIAGQgVJgIAFgACBgAJBUkGEBAAqQBHP//////////////////////////xZz//////////////////////////8Wg3P//////////////////////////xYUYQZ9V2BAUX8Iw3mgAAAAAAAAAAAAAAAAAAAAAAAAAAAAAAAAAAAAAIFSYAQBYQZ0kGEXRVZbYEBRgJEDkP1bYABz//////////////////////////8WgnP//////////////////////////xYDYQbsV2BAUX8Iw3mgAAAAAAAAAAAAAAAAAAAAAAAAAAAAAAAAAAAAAIFSYAQBYQbjkGEXsVZbYEBRgJEDkP1bYQb3gzODYQ3bVlthBzZXYEBRfwjDeaAAAAAAAAAAAAAAAAAAAAAAAAAAAAAAAAAAAAAAgVJgBAFhBy2QYRbZVltgQFGAkQOQ/VtgAYBgAIVz//////////////////////////8Wc///////////////////////////FoFSYCABkIFSYCABYAAgYACCglRhB4WRkGEYAFZbklBQgZBVUGABgGAAhHP//////////////////////////xZz//////////////////////////8WgVJgIAGQgVJgIAFgACBgAIKCVGEH25GQYRg0VluSUFCBkFVQgWAAgIOBUmAgAZCBUmAgAWAAIGAAYQEACoFUgXP//////////////////////////wIZFpCDc///////////////////////////FgIXkFVQYAJgAIKBUmAgAZCBUmAgAWAAIGAAYQEACoFUkHP//////////////////////////wIZFpBVgIJz//////////////////////////8WhHP//////////////////////////xZ/3fJSrRviyJtpwrBo/DeNqpUrp/FjxKEWKPVaTfUjs+9gQFFgQFGAkQOQpFBQUFZbYQjTgoJhDw9WW1BQVlthCOKDg4NhBd1WW2AAgnP//////////////////////////xY7FIBhCctXUGMVC3oCYOAbe/////////////////////////////////////8ZFoJz//////////////////////////8WYxULegIzhoVgQFGEY/////8WYOAbgVJgBAFhCWeTkpGQYRifVltgIGBAUYCDA4FgAIda8RWAFWEJhlc9YACAPj1gAP1bUFBQUGBAUT1gHxlgH4IBFoIBgGBAUlCBAZBhCaqRkGEY/lZbe/////////////////////////////////////8ZFhRbYQoKV2BAUX8Iw3mgAAAAAAAAAAAAAAAAAAAAAAAAAAAAAAAAAAAAAIFSYAQBYQoBkGEZd1ZbYEBRgJEDkP1bUFBQVltgAIBgAIOBUmAgAZCBUmAgAWAAIGAAkFSQYQEACpAEc///////////////////////////FpBQYABz//////////////////////////8WgXP//////////////////////////xYDYQq1V2BAUX8Iw3mgAAAAAAAAAAAAAAAAAAAAAAAAAAAAAAAAAAAAAIFSYAQBYQqskGEWbVZbYEBRgJEDkP1bkZBQVltgAIBz//////////////////////////8WgnP//////////////////////////xYDYQsqV2BAUX8Iw3mgAAAAAAAAAAAAAAAAAAAAAAAAAAAAAAAAAAAAAIFSYAQBYQshkGEZ41ZbYEBRgJEDkP1bYAFgAINz//////////////////////////8Wc///////////////////////////FoFSYCABkIFSYCABYAAgVJBQkZBQVluAYANgADNz//////////////////////////8Wc///////////////////////////FoFSYCABkIFSYCABYAAgYACEc///////////////////////////FnP//////////////////////////xaBUmAgAZCBUmAgAWAAIGAAYQEACoFUgWD/AhkWkIMVFQIXkFVQgXP//////////////////////////xYzc///////////////////////////Fn8XMH6rOathB+iJmEWtPVm9llPyAPIgkgSJyitZN2lsMYNgQFFhDGKRkGESh1ZbYEBRgJEDkKNQUFZbYQx5hYWFYQXdVltgAIRz//////////////////////////8WOxSAYQ1mV1BjFQt6AmDgG3v/////////////////////////////////////GRaEc///////////////////////////FmMVC3oCM4iHh4dgQFGGY/////8WYOAbgVJgBAFhDQKVlJOSkZBhGlBWW2AgYEBRgIMDgWAAh1rxFYAVYQ0hVz1gAIA+PWAA/VtQUFBQYEBRPWAfGWAfggEWggGAYEBSUIEBkGENRZGQYRj+Vlt7/////////////////////////////////////xkWFFthDaVXYEBRfwjDeaAAAAAAAAAAAAAAAAAAAAAAAAAAAAAAAAAAAAAAgVJgBAFhDZyQYRl3VltgQFGAkQOQ/VtQUFBQUFZbYANgIFKBYABSYEBgACBgIFKAYABSYEBgACBgAJFQkVCQVJBhAQAKkARg/xaBVltgAINz//////////////////////////8Wg3P//////////////////////////xYUgGEOnVdQYANgAIVz//////////////////////////8Wc///////////////////////////FoFSYCABkIFSYCABYAAgYACEc///////////////////////////FnP//////////////////////////xaBUmAgAZCBUmAgAWAAIGAAkFSQYQEACpAEYP8WW4BhDwZXUGACYACDgVJgIAGQgVJgIAFgACBgAJBUkGEBAAqQBHP//////////////////////////xZz//////////////////////////8Wg3P//////////////////////////xYUW5BQk5JQUFBWW2AAYARUkFBgAHP//////////////////////////xaDc///////////////////////////FgNhD4VXYEBRfwjDeaAAAAAAAAAAAAAAAAAAAAAAAAAAAAAAAAAAAAAAgVJgBAFhD3yQYRrqVltgQFGAkQOQ/VtgAHP//////////////////////////xZgAICDgVJgIAGQgVJgIAFgACBgAJBUkGEBAAqQBHP//////////////////////////xZz//////////////////////////8WFGEQJldgQFF/CMN5oAAAAAAAAAAAAAAAAAAAAAAAAAAAAAAAAAAAAACBUmAEAWEQHZBhG1ZWW2BAUYCRA5D9W38AAAAAAAAAAAAAAAAAAAAAAAAAAAAAAAAAAAAAAAAAZIIRFWEQiVdgQFF/CMN5oAAAAAAAAAAAAAAAAAAAAAAAAAAAAAAAAAAAAACBUmAEAWEQgJBhG+hWW2BAUYCRA5D9W4Fv/////////////////////xZgAWAAhXP//////////////////////////xZz//////////////////////////8WgVJgIAGQgVJgIAFgACBgAIKCVGEQ6pGQYRg0VluSUFCBkFVQYACBkFBgAFuDgRAVYRHPV4GFc///////////////////////////FmAAc///////////////////////////Fn/d8lKtG+LIm2nCsGj8N42qlSun8WPEoRYo9VpN9SOz72BAUWBAUYCRA5CkhGAAgISBUmAgAZCBUmAgAWAAIGAAYQEACoFUgXP//////////////////////////wIZFpCDc///////////////////////////FgIXkFVQgYBhEbmQYRwIVluSUFCAgGERx5BhHAhWW5FQUGEQ+VZbUIBgBIGQVVBQUFBQVltgAID9W2AAgP1bYAB//////wAAAAAAAAAAAAAAAAAAAAAAAAAAAAAAAAAAAACCFpBQkZBQVlthEhyBYRHnVluBFGESJ1dgAID9W1BWW2AAgTWQUGESOYFhEhNWW5KRUFBWW2AAYCCChAMSFWESVVdhElRhEd1WW1tgAGESY4SChQFhEipWW5FQUJKRUFBWW2AAgRUVkFCRkFBWW2ESgYFhEmxWW4JSUFBWW2AAYCCCAZBQYRKcYACDAYRhEnhWW5KRUFBWW2AAgZBQkZBQVlthErWBYRKiVluBFGESwFdgAID9W1BWW2AAgTWQUGES0oFhEqxWW5KRUFBWW2AAYCCChAMSFWES7ldhEu1hEd1WW1tgAGES/ISChQFhEsNWW5FQUJKRUFBWW2AAc///////////////////////////ghaQUJGQUFZbYABhEzCCYRMFVluQUJGQUFZbYRNAgWETJVZbglJQUFZbYABgIIIBkFBhE1tgAIMBhGETN1ZbkpFQUFZbYRNqgWETJVZbgRRhE3VXYACA/VtQVltgAIE1kFBhE4eBYRNhVluSkVBQVltgAIBgQIOFAxIVYROkV2ETo2ER3VZbW2AAYROyhYKGAWETeFZbklBQYCBhE8OFgoYBYRLDVluRUFCSUJKQUFZbYACAYABgYISGAxIVYRPmV2ET5WER3VZbW2AAYRP0hoKHAWETeFZbk1BQYCBhFAWGgocBYRN4VluSUFBgQGEUFoaChwFhEsNWW5FQUJJQklCSVltgAGAggoQDEhVhFDZXYRQ1YRHdVltbYABhFESEgoUBYRN4VluRUFCSkVBQVlthFFaBYRKiVluCUlBQVltgAGAgggGQUGEUcWAAgwGEYRRNVluSkVBQVlthFICBYRJsVluBFGEUi1dgAID9W1BWW2AAgTWQUGEUnYFhFHdWW5KRUFBWW2AAgGBAg4UDEhVhFLpXYRS5YRHdVltbYABhFMiFgoYBYRN4VluSUFBgIGEU2YWChgFhFI5WW5FQUJJQkpBQVltgAID9W2AAgP1bYACA/VtgAICDYB+EARJhFQhXYRUHYRTjVltbgjWQUGf//////////4ERFWEVJVdhFSRhFOhWW1tgIIMBkVCDYAGCAoMBERVhFUFXYRVAYRTtVltbklCSkFBWW2AAgGAAgGAAYICGiAMSFWEVZFdhFWNhEd1WW1tgAGEVcoiCiQFhE3hWW5VQUGAgYRWDiIKJAWETeFZblFBQYEBhFZSIgokBYRLDVluTUFBgYIYBNWf//////////4ERFWEVtVdhFbRhEeJWW1thFcGIgokBYRTyVluSUJJQUJKVUJKVkJNQVltgAIBgQIOFAxIVYRXnV2EV5mER3VZbW2AAYRX1hYKGAWETeFZbklBQYCBhFgaFgoYBYRN4VluRUFCSUJKQUFZbYACCglJgIIIBkFCSkVBQVlt/dG9rZW4gZG9lc24ndCBleGlzdAAAAAAAAAAAAAAAAABgAIIBUlBWW2AAYRZXYBODYRYQVluRUGEWYoJhFiFWW2AgggGQUJGQUFZbYABgIIIBkFCBgQNgAIMBUmEWhoFhFkpWW5BQkZBQVlt/bm90IGF1dGhvcml6ZWQAAAAAAAAAAAAAAAAAAAAAAABgAIIBUlBWW2AAYRbDYA6DYRYQVluRUGEWzoJhFo1WW2AgggGQUJGQUFZbYABgIIIBkFCBgQNgAIMBUmEW8oFhFrZWW5BQkZBQVlt/ZnJvbSAhPSBvd25lcgAAAAAAAAAAAAAAAAAAAAAAAABgAIIBUlBWW2AAYRcvYA2DYRYQVluRUGEXOoJhFvlWW2AgggGQUJGQUFZbYABgIIIBkFCBgQNgAIMBUmEXXoFhFyJWW5BQkZBQVlt/dHJhbnNmZXIgdG8gemVybyBhZGRyZXNzAAAAAAAAAABgAIIBUlBWW2AAYRebYBiDYRYQVluRUGEXpoJhF2VWW2AgggGQUJGQUFZbYABgIIIBkFCBgQNgAIMBUmEXyoFhF45WW5BQkZBQVlt/Tkh7cQAAAAAAAAAAAAAAAAAAAAAAAAAAAAAAAAAAAABgAFJgEWAEUmAkYAD9W2AAYRgLgmESolZbkVBhGBaDYRKiVluSUIKCA5BQgYERFWEYLldhGC1hF9FWW1uSkVBQVltgAGEYP4JhEqJWW5FQYRhKg2ESolZbklCCggGQUICCERVhGGJXYRhhYRfRVltbkpFQUFZbYACCglJgIIIBkFCSkVBQVltQVltgAGEYiWAAg2EYaFZbkVBhGJSCYRh5VltgAIIBkFCRkFBWW2AAYICCAZBQYRi0YACDAYZhEzdWW2EYwWAggwGFYRM3VlthGM5gQIMBhGEUTVZbgYEDYGCDAVJhGN+BYRh8VluQUJSTUFBQUFZbYACBUZBQYRj4gWESE1ZbkpFQUFZbYABgIIKEAxIVYRkUV2EZE2ER3VZbW2AAYRkihIKFAWEY6VZbkVBQkpFQUFZbf3Vuc2FmZSByZWNpcGllbnQAAAAAAAAAAAAAAAAAAAAAYACCAVJQVltgAGEZYWAQg2EWEFZbkVBhGWyCYRkrVltgIIIBkFCRkFBWW2AAYCCCAZBQgYEDYACDAVJhGZCBYRlUVluQUJGQUFZbf293bmVyID0gemVybyBhZGRyZXNzAAAAAAAAAAAAAAAAYACCAVJQVltgAGEZzWAUg2EWEFZbkVBhGdiCYRmXVltgIIIBkFCRkFBWW2AAYCCCAZBQgYEDYACDAVJhGfyBYRnAVluQUJGQUFZbgoGDN2AAg4MBUlBQUFZbYABgHxlgH4MBFpBQkZBQVltgAGEaL4OFYRhoVluTUGEaPIOFhGEaA1ZbYRpFg2EaElZbhAGQUJOSUFBQVltgAGCAggGQUGEaZWAAgwGIYRM3VlthGnJgIIMBh2ETN1ZbYRp/YECDAYZhFE1WW4GBA2BggwFSYRqSgYSGYRojVluQUJaVUFBQUFBQVlt/bWludCB0byB6ZXJvIGFkZHJlc3MAAAAAAAAAAAAAAABgAIIBUlBWW2AAYRrUYBSDYRYQVluRUGEa34JhGp5WW2AgggGQUJGQUFZbYABgIIIBkFCBgQNgAIMBUmEbA4FhGsdWW5BQkZBQVlt/YWxyZWFkeSBtaW50ZWQAAAAAAAAAAAAAAAAAAAAAAABgAIIBUlBWW2AAYRtAYA6DYRYQVluRUGEbS4JhGwpWW2AgggGQUJGQUFZbYABgIIIBkFCBgQNgAIMBUmEbb4FhGzNWW5BQkZBQVlt/RVJDNzIxQTogcXVhbnRpdHkgdG8gbWludCB0b28gaGlgAIIBUn9naAAAAAAAAAAAAAAAAAAAAAAAAAAAAAAAAAAAAAAAAGAgggFSUFZbYABhG9JgIoNhFhBWW5FQYRvdgmEbdlZbYECCAZBQkZBQVltgAGAgggGQUIGBA2AAgwFSYRwBgWEbxVZbkFCRkFBWW2AAYRwTgmESolZbkVB///////////////////////////////////////////+CA2EcRVdhHERhF9FWW1tgAYIBkFCRkFBW/qJkaXBmc1giEiB0ShnjEsZGBJjOoPQklISOU39GbAYmnRiOIVC0F6mikmRzb2xjQwAIEQAz",
            "touched": true,
            "read": true
          }
        },
        "receiptRoot": "0x6356499c40375bd0f85ee7d7a9e1b7ed87cb9b271e45af8cfc56a8d8d3bef39a",
        "receipt": "0x02f90383018301ff84b9010020000000000000000000000000800000000000000001000200000000000000000000000040000000000000000000000000002000000000000000000000000000000000000000000000000008000000000000000000000000000000000000000000000000020000000002000000100800000002004000000000000010000000000000000000000000000000000000040000000000000400000000000000000000000000000000000020000000000000000000000000000040000000000400000000001002000000000400000000000000000000000000000000000000000020000000000000000000000000000000000000000000000000000000100000000000f90278f89c94ec59ea1acb9fc9f630b2dce73790ed8be0ac036ef884a0ddf252ad1be2c89b69c2b068fc378daa952ba7f163c4a11628f55a4df523b3efa00000000000000000000000000000000000000000000000000000000000000000a0000000000000000000000000deadbeefdeadbeefdeadbeefdeadbeefdeadbeefa0000000000000000000000000000000000000000000000000000000000000001180f89c94ec59ea1acb9fc9f630b2dce73790ed8be0ac036ef884a0ddf252ad1be2c89b69c2b068fc378daa952ba7f163c4a11628f55a4df523b3efa00000000000000000000000000000000000000000000000000000000000000000a0000000000000000000000000deadbeefdeadbeefdeadbeefdeadbeefdeadbeefa0000000000000000000000000000000000000000000000000000000000000001280f89c94ec59ea1acb9fc9f630b2dce73790ed8be0ac036ef884a0ddf252ad1be2c89b69c2b068fc378daa952ba7f163c4a11628f55a4df523b3efa00000000000000000000000000000000000000000000000000000000000000000a0000000000000000000000000deadbeefdeadbeefdeadbeefdeadbeefdeadbeefa0000000000000000000000000000000000000000000000000000000000000001380f89c94ec59ea1acb9fc9f630b2dce73790ed8be0ac036ef884a0ddf252ad1be2c89b69c2b068fc378daa952ba7f163c4a11628f55a4df523b3efa00000000000000000000000000000000000000000000000000000000000000000a0000000000000000000000000deadbeefdeadbeefdeadbeefdeadbeefdeadbeefa0000000000000000000000000000000000000000000000000000000000000001480",
        "txnRoot": "0x0000000000000000000000000000000000000000000000000000000000000000",
        "hash": "0xf9aab78a5b8fb3586ffba16dfda2c6221cfeffa3b090fe968650f7977c1a850b",
        "gasUsed": 130948,
        "bloom": "0x20000000000000000000000000800000000000000001000200000000000000000000000040000000000000000000000000002000000000000000000000000000000000000000000000000008000000000000000000000000000000000000000000000000020000000002000000100800000002004000000000000010000000000000000000000000000000000000040000000000000400000000000000000000000000000000000020000000000000000000000000000040000000000400000000001002000000000400000000000000000000000000000000000000000020000000000000000000000000000000000000000000000000000000100000000000"
      },
      {
        "txn": "0x02f8b48207d1821022843ca33b18843ca33e7a8301ff8494ec59ea1acb9fc9f630b2dce73790ed8be0ac036e80b844248b71fc000000000000000000000000deadbeefdeadbeefdeadbeefdeadbeefdeadbeef0000000000000000000000000000000000000000000000000000000000000004c080a0b77652968607b73b54caf5a1e9ecad604c06f12c9739b725d568011abb72a6a3a0622585790ea08cbc1b9386e1b180e83238ee3333263c75d849fa18d3f65bfcb1",
        "delta": {
          "0x0000000000000000000000000000000000000000": {
            "address": "0x0000000000000000000000000000000000000000",
            "read": true
          },
          "0x85dA99c8a7C2C95964c8EfD687E95E632Fc533D6": {
            "address": "0x85dA99c8a7C2C95964c8EfD687E95E632Fc533D6",
            "nonce": 4131,
            "read": true
          },
          "0xC6F86915245e154ff04aD95750306392C82eFdE8": {
            "address": "0xC6F86915245e154ff04aD95750306392C82eFdE8",
            "read": true
          },
          "0xEc59Ea1ACB9fc9F630B2DCe73790eD8Be0ac036e": {
            "address": "0xEc59Ea1ACB9fc9F630B2DCe73790eD8Be0ac036e",
            "storage": {
              "0x0000000000000000000000000000000000000000000000000000000000000004": "0x0000000000000000000000000000000000000000000000000000000000000019",
              "0x1da244b7f8b81d82e17fde46fbf307da20557945243b38ef4c87c9487b59901b": "0x000000000000000000000000deadbeefdeadbeefdeadbeefdeadbeefdeadbeef",
              "0x52774d722ab93275a0199da6072cca5400bf7f03bf064dd4a2b1af238c418d49": "0x000000000000000000000000deadbeefdeadbeefdeadbeefdeadbeefdeadbeef",
              "0xabd7b398c2237712843e3e780dcd40dfb99446b30666f04c025da4efa5ce5177": "0x0000000000000000000000000000000000000000000000000000000000000017",
              "0xb44b86596a635358e7aa60b17d32860c3f1efe2d3e53fb82c0bb23213b9c4be3": "0x000000000000000000000000deadbeefdeadbeefdeadbeefdeadbeefdeadbeef",
              "0xdc275f13e83bcad5305f77e8f2f06c8d9840ee8b7d606ee958f86f59784b2de3": "0x000000000000000000000000deadbeefdeadbeefdeadbeefdeadbeefdeadbeef"
            },
            "storage_read": {
              "0x0000000000000000000000000000000000000000000000000000000000000004": {},
              "0x1da244b7f8b81d82e17fde46fbf307da20557945243b38ef4c87c9487b59901b": {},
              "0x52774d722ab93275a0199da6072cca5400bf7f03bf064dd4a2b1af238c418d49": {},
              "0xabd7b398c2237712843e3e780dcd40dfb99446b30666f04c025da4efa5ce5177": {},
              "0xb44b86596a635358e7aa60b17d32860c3f1efe2d3e53fb82c0bb23213b9c4be3": {},
              "0xdc275f13e83bcad5305f77e8f2f06c8d9840ee8b7d606ee958f86f59784b2de3": {}
            },
            "code_read": "YIBgQFI0gBVhABBXYACA/VtQYAQ2EGEAqVdgADVg4ByAY0KELg4RYQBxV4BjQoQuDhRhAWJXgGNjUiEeFGEBfleAY3CggjEUYQGuV4Bjoiy0ZRRhAd5XgGO4jU/eFGEB+leAY+mF6cUUYQIWV2EAqVZbgGMB/8mnFGEArleAYwgYEvwUYQDeV4BjCV6nsxRhAQ5XgGMjuHLdFGEBKleAYySLcfwUYQFGV1tgAID9W2EAyGAEgDYDgQGQYQDDkZBhEj9WW2ECRlZbYEBRYQDVkZBhEodWW2BAUYCRA5DzW2EA+GAEgDYDgQGQYQDzkZBhEthWW2EDGFZbYEBRYQEFkZBhE0ZWW2BAUYCRA5DzW2EBKGAEgDYDgQGQYQEjkZBhE41WW2ED9VZbAFthAURgBIA2A4EBkGEBP5GQYRPNVlthBd1WWwBbYQFgYASANgOBAZBhAVuRkGETjVZbYQjJVlsAW2EBfGAEgDYDgQGQYQF3kZBhE81WW2EI11ZbAFthAZhgBIA2A4EBkGEBk5GQYRLYVlthCg9WW2BAUWEBpZGQYRNGVltgQFGAkQOQ81thAchgBIA2A4EBkGEBw5GQYRQgVlthCrpWW2BAUWEB1ZGQYRRcVltgQFGAkQOQ81thAfhgBIA2A4EBkGEB85GQYRSjVlthC3FWWwBbYQIUYASANgOBAZBhAg+RkGEVSFZbYQxuVlsAW2ECMGAEgDYDgQGQYQIrkZBhFdBWW2ENrFZbYEBRYQI9kZBhEodWW2BAUYCRA5DzW2AAf4CsWM0AAAAAAAAAAAAAAAAAAAAAAAAAAAAAAAAAAAAAe/////////////////////////////////////8ZFoJ7/////////////////////////////////////xkWFIBhAxFXUH8B/8mnAAAAAAAAAAAAAAAAAAAAAAAAAAAAAAAAAAAAAHv/////////////////////////////////////GRaCe/////////////////////////////////////8ZFhRbkFCRkFBWW2AAgHP//////////////////////////xZgAICEgVJgIAGQgVJgIAFgACBgAJBUkGEBAAqQBHP//////////////////////////xZz//////////////////////////8WA2EDuldgQFF/CMN5oAAAAAAAAAAAAAAAAAAAAAAAAAAAAAAAAAAAAACBUmAEAWEDsZBhFm1WW2BAUYCRA5D9W2ACYACDgVJgIAGQgVJgIAFgACBgAJBUkGEBAAqQBHP//////////////////////////xaQUJGQUFZbYACAYACDgVJgIAGQgVJgIAFgACBgAJBUkGEBAAqQBHP//////////////////////////xaQUIBz//////////////////////////8WM3P//////////////////////////xYUgGEE7FdQYANgAIJz//////////////////////////8Wc///////////////////////////FoFSYCABkIFSYCABYAAgYAAzc///////////////////////////FnP//////////////////////////xaBUmAgAZCBUmAgAWAAIGAAkFSQYQEACpAEYP8WW2EFK1dgQFF/CMN5oAAAAAAAAAAAAAAAAAAAAAAAAAAAAAAAAAAAAACBUmAEAWEFIpBhFtlWW2BAUYCRA5D9W4JgAmAAhIFSYCABkIFSYCABYAAgYABhAQAKgVSBc///////////////////////////AhkWkINz//////////////////////////8WAheQVVCBg3P//////////////////////////xaCc///////////////////////////Fn+MW+Hl6+x9W9FPcUJ9HoTz3QMUwPeyKR5bIArIx8O5JWBAUWBAUYCRA5CkUFBQVltgAICCgVJgIAGQgVJgIAFgACBgAJBUkGEBAAqQBHP//////////////////////////xZz//////////////////////////8Wg3P//////////////////////////xYUYQZ9V2BAUX8Iw3mgAAAAAAAAAAAAAAAAAAAAAAAAAAAAAAAAAAAAAIFSYAQBYQZ0kGEXRVZbYEBRgJEDkP1bYABz//////////////////////////8WgnP//////////////////////////xYDYQbsV2BAUX8Iw3mgAAAAAAAAAAAAAAAAAAAAAAAAAAAAAAAAAAAAAIFSYAQBYQbjkGEXsVZbYEBRgJEDkP1bYQb3gzODYQ3bVlthBzZXYEBRfwjDeaAAAAAAAAAAAAAAAAAAAAAAAAAAAAAAAAAAAAAAgVJgBAFhBy2QYRbZVltgQFGAkQOQ/VtgAYBgAIVz//////////////////////////8Wc///////////////////////////FoFSYCABkIFSYCABYAAgYACCglRhB4WRkGEYAFZbklBQgZBVUGABgGAAhHP//////////////////////////xZz//////////////////////////8WgVJgIAGQgVJgIAFgACBgAIKCVGEH25GQYRg0VluSUFCBkFVQgWAAgIOBUmAgAZCBUmAgAWAAIGAAYQEACoFUgXP//////////////////////////wIZFpCDc///////////////////////////FgIXkFVQYAJgAIKBUmAgAZCBUmAgAWAAIGAAYQEACoFUkHP//////////////////////////wIZFpBVgIJz//////////////////////////8WhHP//////////////////////////xZ/3fJSrRviyJtpwrBo/DeNqpUrp/FjxKEWKPVaTfUjs+9gQFFgQFGAkQOQpFBQUFZbYQjTgoJhDw9WW1BQVlthCOKDg4NhBd1WW2AAgnP//////////////////////////xY7FIBhCctXUGMVC3oCYOAbe/////////////////////////////////////8ZFoJz//////////////////////////8WYxULegIzhoVgQFGEY/////8WYOAbgVJgBAFhCWeTkpGQYRifVltgIGBAUYCDA4FgAIda8RWAFWEJhlc9YACAPj1gAP1bUFBQUGBAUT1gHxlgH4IBFoIBgGBAUlCBAZBhCaqRkGEY/lZbe/////////////////////////////////////8ZFhRbYQoKV2BAUX8Iw3mgAAAAAAAAAAAAAAAAAAAAAAAAAAAAAAAAAAAAAIFSYAQBYQoBkGEZd1ZbYEBRgJEDkP1bUFBQVltgAIBgAIOBUmAgAZCBUmAgAWAAIGAAkFSQYQEACpAEc///////////////////////////FpBQYABz//////////////////////////8WgXP//////////////////////////xYDYQq1V2BAUX8Iw3mgAAAAAAAAAAAAAAAAAAAAAAAAAAAAAAAAAAAAAIFSYAQBYQqskGEWbVZbYEBRgJEDkP1bkZBQVltgAIBz//////////////////////////8WgnP//////////////////////////xYDYQsqV2BAUX8Iw3mgAAAAAAAAAAAAAAAAAAAAAAAAAAAAAAAAAAAAAIFSYAQBYQshkGEZ41ZbYEBRgJEDkP1bYAFgAINz//////////////////////////8Wc///////////////////////////FoFSYCABkIFSYCABYAAgVJBQkZBQVluAYANgADNz//////////////////////////8Wc///////////////////////////FoFSYCABkIFSYCABYAAgYACEc///////////////////////////FnP//////////////////////////xaBUmAgAZCBUmAgAWAAIGAAYQEACoFUgWD/AhkWkIMVFQIXkFVQgXP//////////////////////////xYzc///////////////////////////Fn8XMH6rOathB+iJmEWtPVm9llPyAPIgkgSJyitZN2lsMYNgQFFhDGKRkGESh1ZbYEBRgJEDkKNQUFZbYQx5hYWFYQXdVltgAIRz//////////////////////////8WOxSAYQ1mV1BjFQt6AmDgG3v/////////////////////////////////////GRaEc///////////////////////////FmMVC3oCM4iHh4dgQFGGY/////8WYOAbgVJgBAFhDQKVlJOSkZBhGlBWW2AgYEBRgIMDgWAAh1rxFYAVYQ0hVz1gAIA+PWAA/VtQUFBQYEBRPWAfGWAfggEWggGAYEBSUIEBkGENRZGQYRj+Vlt7/////////////////////////////////////xkWFFthDaVXYEBRfwjDeaAAAAAAAAAAAAAAAAAAAAAAAAAAAAAAAAAAAAAAgVJgBAFhDZyQYRl3VltgQFGAkQOQ/VtQUFBQUFZbYANgIFKBYABSYEBgACBgIFKAYABSYEBgACBgAJFQkVCQVJBhAQAKkARg/xaBVltgAINz//////////////////////////8Wg3P//////////////////////////xYUgGEOnVdQYANgAIVz//////////////////////////8Wc///////////////////////////FoFSYCABkIFSYCABYAAgYACEc///////////////////////////FnP//////////////////////////xaBUmAgAZCBUmAgAWAAIGAAkFSQYQEACpAEYP8WW4BhDwZXUGACYACDgVJgIAGQgVJgIAFgACBgAJBUkGEBAAqQBHP//////////////////////////xZz//////////////////////////8Wg3P//////////////////////////xYUW5BQk5JQUFBWW2AAYARUkFBgAHP//////////////////////////xaDc///////////////////////////FgNhD4VXYEBRfwjDeaAAAAAAAAAAAAAAAAAAAAAAAAAAAAAAAAAAAAAAgVJgBAFhD3yQYRrqVltgQFGAkQOQ/VtgAHP//////////////////////////xZgAICDgVJgIAGQgVJgIAFgACBgAJBUkGEBAAqQBHP//////////////////////////xZz//////////////////////////8WFGEQJldgQFF/CMN5oAAAAAAAAAAAAAAAAAAAAAAAAAAAAAAAAAAAAACBUmAEAWEQHZBhG1ZWW2BAUYCRA5D9W38AAAAAAAAAAAAAAAAAAAAAAAAAAAAAAAAAAAAAAAAAZIIRFWEQiVdgQFF/CMN5oAAAAAAAAAAAAAAAAAAAAAAAAAAAAAAAAAAAAACBUmAEAWEQgJBhG+hWW2BAUYCRA5D9W4Fv/////////////////////xZgAWAAhXP//////////////////////////xZz//////////////////////////8WgVJgIAGQgVJgIAFgACBgAIKCVGEQ6pGQYRg0VluSUFCBkFVQYACBkFBgAFuDgRAVYRHPV4GFc///////////////////////////FmAAc///////////////////////////Fn/d8lKtG+LIm2nCsGj8N42qlSun8WPEoRYo9VpN9SOz72BAUWBAUYCRA5CkhGAAgISBUmAgAZCBUmAgAWAAIGAAYQEACoFUgXP//////////////////////////wIZFpCDc///////////////////////////FgIXkFVQgYBhEbmQYRwIVluSUFCAgGERx5BhHAhWW5FQUGEQ+VZbUIBgBIGQVVBQUFBQVltgAID9W2AAgP1bYAB//////wAAAAAAAAAAAAAAAAAAAAAAAAAAAAAAAAAAAACCFpBQkZBQVlthEhyBYRHnVluBFGESJ1dgAID9W1BWW2AAgTWQUGESOYFhEhNWW5KRUFBWW2AAYCCChAMSFWESVVdhElRhEd1WW1tgAGESY4SChQFhEipWW5FQUJKRUFBWW2AAgRUVkFCRkFBWW2ESgYFhEmxWW4JSUFBWW2AAYCCCAZBQYRKcYACDAYRhEnhWW5KRUFBWW2AAgZBQkZBQVlthErWBYRKiVluBFGESwFdgAID9W1BWW2AAgTWQUGES0oFhEqxWW5KRUFBWW2AAYCCChAMSFWES7ldhEu1hEd1WW1tgAGES/ISChQFhEsNWW5FQUJKRUFBWW2AAc///////////////////////////ghaQUJGQUFZbYABhEzCCYRMFVluQUJGQUFZbYRNAgWETJVZbglJQUFZbYABgIIIBkFBhE1tgAIMBhGETN1ZbkpFQUFZbYRNqgWETJVZbgRRhE3VXYACA/VtQVltgAIE1kFBhE4eBYRNhVluSkVBQVltgAIBgQIOFAxIVYROkV2ETo2ER3VZbW2AAYROyhYKGAWETeFZbklBQYCBhE8OFgoYBYRLDVluRUFCSUJKQUFZbYACAYABgYISGAxIVYRPmV2ET5WER3VZbW2AAYRP0hoKHAWETeFZbk1BQYCBhFAWGgocBYRN4VluSUFBgQGEUFoaChwFhEsNWW5FQUJJQklCSVltgAGAggoQDEhVhFDZXYRQ1YRHdVltbYABhFESEgoUBYRN4VluRUFCSkVBQVlthFFaBYRKiVluCUlBQVltgAGAgggGQUGEUcWAAgwGEYRRNVluSkVBQVlthFICBYRJsVluBFGEUi1dgAID9W1BWW2AAgTWQUGEUnYFhFHdWW5KRUFBWW2AAgGBAg4UDEhVhFLpXYRS5YRHdVltbYABhFMiFgoYBYRN4VluSUFBgIGEU2YWChgFhFI5WW5FQUJJQkpBQVltgAID9W2AAgP1bYACA/VtgAICDYB+EARJhFQhXYRUHYRTjVltbgjWQUGf//////////4ERFWEVJVdhFSRhFOhWW1tgIIMBkVCDYAGCAoMBERVhFUFXYRVAYRTtVltbklCSkFBWW2AAgGAAgGAAYICGiAMSFWEVZFdhFWNhEd1WW1tgAGEVcoiCiQFhE3hWW5VQUGAgYRWDiIKJAWETeFZblFBQYEBhFZSIgokBYRLDVluTUFBgYIYBNWf//////////4ERFWEVtVdhFbRhEeJWW1thFcGIgokBYRTyVluSUJJQUJKVUJKVkJNQVltgAIBgQIOFAxIVYRXnV2EV5mER3VZbW2AAYRX1hYKGAWETeFZbklBQYCBhFgaFgoYBYRN4VluRUFCSUJKQUFZbYACCglJgIIIBkFCSkVBQVlt/dG9rZW4gZG9lc24ndCBleGlzdAAAAAAAAAAAAAAAAABgAIIBUlBWW2AAYRZXYBODYRYQVluRUGEWYoJhFiFWW2AgggGQUJGQUFZbYABgIIIBkFCBgQNgAIMBUmEWhoFhFkpWW5BQkZBQVlt/bm90IGF1dGhvcml6ZWQAAAAAAAAAAAAAAAAAAAAAAABgAIIBUlBWW2AAYRbDYA6DYRYQVluRUGEWzoJhFo1WW2AgggGQUJGQUFZbYABgIIIBkFCBgQNgAIMBUmEW8oFhFrZWW5BQkZBQVlt/ZnJvbSAhPSBvd25lcgAAAAAAAAAAAAAAAAAAAAAAAABgAIIBUlBWW2AAYRcvYA2DYRYQVluRUGEXOoJhFvlWW2AgggGQUJGQUFZbYABgIIIBkFCBgQNgAIMBUmEXXoFhFyJWW5BQkZBQVlt/dHJhbnNmZXIgdG8gemVybyBhZGRyZXNzAAAAAAAAAABgAIIBUlBWW2AAYRebYBiDYRYQVluRUGEXpoJhF2VWW2AgggGQUJGQUFZbYABgIIIBkFCBgQNgAIMBUmEXyoFhF45WW5BQkZBQVlt/Tkh7cQAAAAAAAAAAAAAAAAAAAAAAAAAAAAAAAAAAAABgAFJgEWAEUmAkYAD9W2AAYRgLgmESolZbkVBhGBaDYRKiVluSUIKCA5BQgYERFWEYLldhGC1hF9FWW1uSkVBQVltgAGEYP4JhEqJWW5FQYRhKg2ESolZbklCCggGQUICCERVhGGJXYRhhYRfRVltbkpFQUFZbYACCglJgIIIBkFCSkVBQVltQVltgAGEYiWAAg2EYaFZbkVBhGJSCYRh5VltgAIIBkFCRkFBWW2AAYICCAZBQYRi0YACDAYZhEzdWW2EYwWAggwGFYRM3VlthGM5gQIMBhGEUTVZbgYEDYGCDAVJhGN+BYRh8VluQUJSTUFBQUFZbYACBUZBQYRj4gWESE1ZbkpFQUFZbYABgIIKEAxIVYRkUV2EZE2ER3VZbW2AAYRkihIKFAWEY6VZbkVBQkpFQUFZbf3Vuc2FmZSByZWNpcGllbnQAAAAAAAAAAAAAAAAAAAAAYACCAVJQVltgAGEZYWAQg2EWEFZbkVBhGWyCYRkrVltgIIIBkFCRkFBWW2AAYCCCAZBQgYEDYACDAVJhGZCBYRlUVluQUJGQUFZbf293bmVyID0gemVybyBhZGRyZXNzAAAAAAAAAAAAAAAAYACCAVJQVltgAGEZzWAUg2EWEFZbkVBhGdiCYRmXVltgIIIBkFCRkFBWW2AAYCCCAZBQgYEDYACDAVJhGfyBYRnAVluQUJGQUFZbgoGDN2AAg4MBUlBQUFZbYABgHxlgH4MBFpBQkZBQVltgAGEaL4OFYRhoVluTUGEaPIOFhGEaA1ZbYRpFg2EaElZbhAGQUJOSUFBQVltgAGCAggGQUGEaZWAAgwGIYRM3VlthGnJgIIMBh2ETN1ZbYRp/YECDAYZhFE1WW4GBA2BggwFSYRqSgYSGYRojVluQUJaVUFBQUFBQVlt/bWludCB0byB6ZXJvIGFkZHJlc3MAAAAAAAAAAAAAAABgAIIBUlBWW2AAYRrUYBSDYRYQVluRUGEa34JhGp5WW2AgggGQUJGQUFZbYABgIIIBkFCBgQNgAIMBUmEbA4FhGsdWW5BQkZBQVlt/YWxyZWFkeSBtaW50ZWQAAAAAAAAAAAAAAAAAAAAAAABgAIIBUlBWW2AAYRtAYA6DYRYQVluRUGEbS4JhGwpWW2AgggGQUJGQUFZbYABgIIIBkFCBgQNgAIMBUmEbb4FhGzNWW5BQkZBQVlt/RVJDNzIxQTogcXVhbnRpdHkgdG8gbWludCB0b28gaGlgAIIBUn9naAAAAAAAAAAAAAAAAAAAAAAAAAAAAAAAAAAAAAAAAGAgggFSUFZbYABhG9JgIoNhFhBWW5FQYRvdgmEbdlZbYECCAZBQkZBQVltgAGAgggGQUIGBA2AAgwFSYRwBgWEbxVZbkFCRkFBWW2AAYRwTgmESolZbkVB///////////////////////////////////////////+CA2EcRVdhHERhF9FWW1tgAYIBkFCRkFBW/qJkaXBmc1giEiB0ShnjEsZGBJjOoPQklISOU39GbAYmnRiOIVC0F6mikmRzb2xjQwAIEQAz",
            "touched": true,
            "read": true
          }
        },
        "receiptRoot": "0xf13eb20e97ae7f97e6f1209661cda58016215d6bbe7fbae912e88c5087c20667",
        "receipt": "0x02f90383018303e928b9010000000000000000000000000000000000000000000001000200000000000000000000000000000000000000000000000000001000000000000000001000000000001000000000000800000008000000000040000000000000000000000000000000000000020000000002000000100800200002000000000000000010000000000000000000000000000000000000000000000000000000000000000000000000000000000000000000000000010000000000000000000000000000000000000000100002000000000000000000000000000000000000000020000000000020002000000000000000000000000000000000000000000000000008100000080000f90278f89c94ec59ea1acb9fc9f630b2dce73790ed8be0ac036ef884a0ddf252ad1be2c89b69c2b068fc378daa952ba7f163c4a11628f55a4df523b3efa00000000000000000000000000000000000000000000000000000000000000000a0000000000000000000000000deadbeefdeadbeefdeadbeefdeadbeefdeadbeefa0000000000000000000000000000000000000000000000000000000000000001580f89c94ec59ea1acb9fc9f630b2dce73790ed8be0ac036ef884a0ddf252ad1be2c89b69c2b068fc378daa952ba7f163c4a11628f55a4df523b3efa00000000000000000000000000000000000000000000000000000000000000000a0000000000000000000000000deadbeefdeadbeefdeadbeefdeadbeefdeadbeefa0000000000000000000000000000000000000000000000000000000000000001680f89c94ec59ea1acb9fc9f630b2dce73790ed8be0ac036ef884a0ddf252ad1be2c89b69c2b068fc378daa952ba7f163c4a11628f55a4df523b3efa00000000000000000000000000000000000000000000000000000000000000000a0000000000000000000000000deadbeefdeadbeefdeadbeefdeadbeefdeadbeefa0000000000000000000000000000000000000000000000000000000000000001780f89c94ec59ea1acb9fc9f630b2dce73790ed8be0ac036ef884a0ddf252ad1be2c89b69c2b068fc378daa952ba7f163c4a11628f55a4df523b3efa00000000000000000000000000000000000000000000000000000000000000000a0000000000000000000000000deadbeefdeadbeefdeadbeefdeadbeefdeadbeefa0000000000000000000000000000000000000000000000000000000000000001880",
        "txnRoot": "0x0000000000000000000000000000000000000000000000000000000000000000",
        "hash": "0x92385687b7a0068beacd3fdc06fa5e84d973eedfa8d16913c146a05827e6be9f",
        "gasUsed": 125348,
        "bloom": "0x00000000000000000000000000000000000000000001000200000000000000000000000000000000000000000000000000001000000000000000001000000000001000000000000800000008000000000040000000000000000000000000000000000000020000000002000000100800200002000000000000000010000000000000000000000000000000000000000000000000000000000000000000000000000000000000000000000000010000000000000000000000000000000000000000100002000000000000000000000000000000000000000020000000000020002000000000000000000000000000000000000000000000000008100000080000"
      }
    ]
  }
}
